{
  "_format": "hh-sol-artifact-1",
  "contractName": "TokenRCC",
  "sourceName": "contracts/TokenRCC.sol",
  "abi": [
    {
      "inputs": [
        {
          "internalType": "uint256",
          "name": "initialSupply",
          "type": "uint256"
        }
      ],
      "stateMutability": "nonpayable",
      "type": "constructor"
    },
    {
      "inputs": [
        {
          "internalType": "address",
          "name": "spender",
          "type": "address"
        },
        {
          "internalType": "uint256",
          "name": "allowance",
          "type": "uint256"
        },
        {
          "internalType": "uint256",
          "name": "needed",
          "type": "uint256"
        }
      ],
      "name": "ERC20InsufficientAllowance",
      "type": "error"
    },
    {
      "inputs": [
        {
          "internalType": "address",
          "name": "sender",
          "type": "address"
        },
        {
          "internalType": "uint256",
          "name": "balance",
          "type": "uint256"
        },
        {
          "internalType": "uint256",
          "name": "needed",
          "type": "uint256"
        }
      ],
      "name": "ERC20InsufficientBalance",
      "type": "error"
    },
    {
      "inputs": [
        {
          "internalType": "address",
          "name": "approver",
          "type": "address"
        }
      ],
      "name": "ERC20InvalidApprover",
      "type": "error"
    },
    {
      "inputs": [
        {
          "internalType": "address",
          "name": "receiver",
          "type": "address"
        }
      ],
      "name": "ERC20InvalidReceiver",
      "type": "error"
    },
    {
      "inputs": [
        {
          "internalType": "address",
          "name": "sender",
          "type": "address"
        }
      ],
      "name": "ERC20InvalidSender",
      "type": "error"
    },
    {
      "inputs": [
        {
          "internalType": "address",
          "name": "spender",
          "type": "address"
        }
      ],
      "name": "ERC20InvalidSpender",
      "type": "error"
    },
    {
      "anonymous": false,
      "inputs": [
        {
          "indexed": true,
          "internalType": "address",
          "name": "owner",
          "type": "address"
        },
        {
          "indexed": true,
          "internalType": "address",
          "name": "spender",
          "type": "address"
        },
        {
          "indexed": false,
          "internalType": "uint256",
          "name": "value",
          "type": "uint256"
        }
      ],
      "name": "Approval",
      "type": "event"
    },
    {
      "anonymous": false,
      "inputs": [
        {
          "indexed": false,
          "internalType": "string",
          "name": "description",
          "type": "string"
        },
        {
          "indexed": true,
          "internalType": "address",
          "name": "_from",
          "type": "address"
        },
        {
          "indexed": false,
          "internalType": "uint256",
          "name": "_n",
          "type": "uint256"
        }
      ],
      "name": "LogNewAlert",
      "type": "event"
    },
    {
      "anonymous": false,
      "inputs": [
        {
          "indexed": true,
          "internalType": "address",
          "name": "from",
          "type": "address"
        },
        {
          "indexed": true,
          "internalType": "address",
          "name": "to",
          "type": "address"
        },
        {
          "indexed": false,
          "internalType": "uint256",
          "name": "value",
          "type": "uint256"
        }
      ],
      "name": "Transfer",
      "type": "event"
    },
    {
      "inputs": [],
      "name": "_reward",
      "outputs": [],
      "stateMutability": "nonpayable",
      "type": "function"
    },
    {
      "inputs": [
        {
          "internalType": "address",
          "name": "owner",
          "type": "address"
        },
        {
          "internalType": "address",
          "name": "spender",
          "type": "address"
        }
      ],
      "name": "allowance",
      "outputs": [
        {
          "internalType": "uint256",
          "name": "",
          "type": "uint256"
        }
      ],
      "stateMutability": "view",
      "type": "function"
    },
    {
      "inputs": [
        {
          "internalType": "address",
          "name": "spender",
          "type": "address"
        },
        {
          "internalType": "uint256",
          "name": "value",
          "type": "uint256"
        }
      ],
      "name": "approve",
      "outputs": [
        {
          "internalType": "bool",
          "name": "",
          "type": "bool"
        }
      ],
      "stateMutability": "nonpayable",
      "type": "function"
    },
    {
      "inputs": [
        {
          "internalType": "address",
          "name": "account",
          "type": "address"
        }
      ],
      "name": "balanceOf",
      "outputs": [
        {
          "internalType": "uint256",
          "name": "",
          "type": "uint256"
        }
      ],
      "stateMutability": "view",
      "type": "function"
    },
    {
      "inputs": [],
      "name": "dec",
      "outputs": [
        {
          "internalType": "uint8",
          "name": "",
          "type": "uint8"
        }
      ],
      "stateMutability": "view",
      "type": "function"
    },
    {
      "inputs": [],
      "name": "decimals",
      "outputs": [
        {
          "internalType": "uint8",
          "name": "",
          "type": "uint8"
        }
      ],
      "stateMutability": "view",
      "type": "function"
    },
    {
      "inputs": [],
      "name": "name",
      "outputs": [
        {
          "internalType": "string",
          "name": "",
          "type": "string"
        }
      ],
      "stateMutability": "view",
      "type": "function"
    },
    {
      "inputs": [],
      "name": "symbol",
      "outputs": [
        {
          "internalType": "string",
          "name": "",
          "type": "string"
        }
      ],
      "stateMutability": "view",
      "type": "function"
    },
    {
      "inputs": [],
      "name": "totalSupply",
      "outputs": [
        {
          "internalType": "uint256",
          "name": "",
          "type": "uint256"
        }
      ],
      "stateMutability": "view",
      "type": "function"
    },
    {
      "inputs": [
        {
          "internalType": "address",
          "name": "to",
          "type": "address"
        },
        {
          "internalType": "uint256",
          "name": "value",
          "type": "uint256"
        }
      ],
      "name": "transfer",
      "outputs": [
        {
          "internalType": "bool",
          "name": "",
          "type": "bool"
        }
      ],
      "stateMutability": "nonpayable",
      "type": "function"
    },
    {
      "inputs": [
        {
          "internalType": "address",
          "name": "from",
          "type": "address"
        },
        {
          "internalType": "address",
          "name": "to",
          "type": "address"
        },
        {
          "internalType": "uint256",
          "name": "value",
          "type": "uint256"
        }
      ],
      "name": "transferFrom",
      "outputs": [
        {
          "internalType": "bool",
          "name": "",
          "type": "bool"
        }
      ],
      "stateMutability": "nonpayable",
      "type": "function"
    }
  ],
  "bytecode": "0x60806040526012600560006101000a81548160ff021916908360ff1602179055503480156200002d57600080fd5b5060405162001c8638038062001c8683398181016040528101906200005391906200042e565b6040518060400160405280600e81526020017f52656d6f7465436f646543616d700000000000000000000000000000000000008152506040518060400160405280600381526020017f52434300000000000000000000000000000000000000000000000000000000008152508160039081620000d09190620006d0565b508060049081620000e29190620006d0565b5050506000600560009054906101000a900460ff1660ff16600a6200010891906200093a565b826200011591906200098b565b90506200012933826200013160201b60201c565b505062000ade565b600073ffffffffffffffffffffffffffffffffffffffff168273ffffffffffffffffffffffffffffffffffffffff1603620001a65760006040517fec442f050000000000000000000000000000000000000000000000000000000081526004016200019d919062000a1b565b60405180910390fd5b620001ba60008383620001be60201b60201c565b5050565b600073ffffffffffffffffffffffffffffffffffffffff168373ffffffffffffffffffffffffffffffffffffffff16036200021457806002600082825462000207919062000a38565b92505081905550620002ea565b60008060008573ffffffffffffffffffffffffffffffffffffffff1673ffffffffffffffffffffffffffffffffffffffff16815260200190815260200160002054905081811015620002a3578381836040517fe450d38c0000000000000000000000000000000000000000000000000000000081526004016200029a9392919062000a84565b60405180910390fd5b8181036000808673ffffffffffffffffffffffffffffffffffffffff1673ffffffffffffffffffffffffffffffffffffffff16815260200190815260200160002081905550505b600073ffffffffffffffffffffffffffffffffffffffff168273ffffffffffffffffffffffffffffffffffffffff160362000335578060026000828254039250508190555062000382565b806000808473ffffffffffffffffffffffffffffffffffffffff1673ffffffffffffffffffffffffffffffffffffffff168152602001908152602001600020600082825401925050819055505b8173ffffffffffffffffffffffffffffffffffffffff168373ffffffffffffffffffffffffffffffffffffffff167fddf252ad1be2c89b69c2b068fc378daa952ba7f163c4a11628f55a4df523b3ef83604051620003e1919062000ac1565b60405180910390a3505050565b600080fd5b6000819050919050565b6200040881620003f3565b81146200041457600080fd5b50565b6000815190506200042881620003fd565b92915050565b600060208284031215620004475762000446620003ee565b5b6000620004578482850162000417565b91505092915050565b600081519050919050565b7f4e487b7100000000000000000000000000000000000000000000000000000000600052604160045260246000fd5b7f4e487b7100000000000000000000000000000000000000000000000000000000600052602260045260246000fd5b60006002820490506001821680620004e257607f821691505b602082108103620004f857620004f76200049a565b5b50919050565b60008190508160005260206000209050919050565b60006020601f8301049050919050565b600082821b905092915050565b600060088302620005627fffffffffffffffffffffffffffffffffffffffffffffffffffffffffffffffff8262000523565b6200056e868362000523565b95508019841693508086168417925050509392505050565b6000819050919050565b6000620005b1620005ab620005a584620003f3565b62000586565b620003f3565b9050919050565b6000819050919050565b620005cd8362000590565b620005e5620005dc82620005b8565b84845462000530565b825550505050565b600090565b620005fc620005ed565b62000609818484620005c2565b505050565b5b81811015620006315762000625600082620005f2565b6001810190506200060f565b5050565b601f82111562000680576200064a81620004fe565b620006558462000513565b8101602085101562000665578190505b6200067d620006748562000513565b8301826200060e565b50505b505050565b600082821c905092915050565b6000620006a56000198460080262000685565b1980831691505092915050565b6000620006c0838362000692565b9150826002028217905092915050565b620006db8262000460565b67ffffffffffffffff811115620006f757620006f66200046b565b5b620007038254620004c9565b6200071082828562000635565b600060209050601f83116001811462000748576000841562000733578287015190505b6200073f8582620006b2565b865550620007af565b601f1984166200075886620004fe565b60005b8281101562000782578489015182556001820191506020850194506020810190506200075b565b86831015620007a257848901516200079e601f89168262000692565b8355505b6001600288020188555050505b505050505050565b7f4e487b7100000000000000000000000000000000000000000000000000000000600052601160045260246000fd5b60008160011c9050919050565b6000808291508390505b600185111562000845578086048111156200081d576200081c620007b7565b5b60018516156200082d5780820291505b80810290506200083d85620007e6565b9450620007fd565b94509492505050565b60008262000860576001905062000933565b8162000870576000905062000933565b81600181146200088957600281146200089457620008ca565b600191505062000933565b60ff841115620008a957620008a8620007b7565b5b8360020a915084821115620008c357620008c2620007b7565b5b5062000933565b5060208310610133831016604e8410600b8410161715620009045782820a905083811115620008fe57620008fd620007b7565b5b62000933565b620009138484846001620007f3565b925090508184048111156200092d576200092c620007b7565b5b81810290505b9392505050565b60006200094782620003f3565b91506200095483620003f3565b9250620009837fffffffffffffffffffffffffffffffffffffffffffffffffffffffffffffffff84846200084e565b905092915050565b60006200099882620003f3565b9150620009a583620003f3565b9250828202620009b581620003f3565b91508282048414831517620009cf57620009ce620007b7565b5b5092915050565b600073ffffffffffffffffffffffffffffffffffffffff82169050919050565b600062000a0382620009d6565b9050919050565b62000a1581620009f6565b82525050565b600060208201905062000a32600083018462000a0a565b92915050565b600062000a4582620003f3565b915062000a5283620003f3565b925082820190508082111562000a6d5762000a6c620007b7565b5b92915050565b62000a7e81620003f3565b82525050565b600060608201905062000a9b600083018662000a0a565b62000aaa602083018562000a73565b62000ab9604083018462000a73565b949350505050565b600060208201905062000ad8600083018462000a73565b92915050565b6111988062000aee6000396000f3fe608060405234801561001057600080fd5b50600436106100a95760003560e01c8063313ce56711610071578063313ce5671461015457806370a082311461017257806395d89b41146101a2578063a9059cbb146101c0578063b3bcfa82146101f0578063dd62ed3e1461020e576100a9565b806306fdde03146100ae578063095ea7b3146100cc57806318160ddd146100fc5780631be0717f1461011a57806323b872dd14610124575b600080fd5b6100b661023e565b6040516100c39190610bf4565b60405180910390f35b6100e660048036038101906100e19190610caf565b6102d0565b6040516100f39190610d0a565b60405180910390f35b6101046102f3565b6040516101119190610d34565b60405180910390f35b6101226102fd565b005b61013e60048036038101906101399190610d4f565b610375565b60405161014b9190610d0a565b60405180910390f35b61015c6103a4565b6040516101699190610dbe565b60405180910390f35b61018c60048036038101906101879190610dd9565b6103ad565b6040516101999190610d34565b60405180910390f35b6101aa6103f5565b6040516101b79190610bf4565b60405180910390f35b6101da60048036038101906101d59190610caf565b610487565b6040516101e79190610d0a565b60405180910390f35b6101f86104aa565b6040516102059190610dbe565b60405180910390f35b61022860048036038101906102239190610e06565b6104bd565b6040516102359190610d34565b60405180910390f35b60606003805461024d90610e75565b80601f016020809104026020016040519081016040528092919081815260200182805461027990610e75565b80156102c65780601f1061029b576101008083540402835291602001916102c6565b820191906000526020600020905b8154815290600101906020018083116102a957829003601f168201915b5050505050905090565b6000806102db610544565b90506102e881858561054c565b600191505092915050565b6000600254905090565b61032533600560009054906101000a900460ff1660ff16600a6103209190611008565b61055e565b3373ffffffffffffffffffffffffffffffffffffffff167f773a356cf0813bd1ca65bdc565502f1d0bbe0bdb956cb13da59a9a437e2bd0124360405161036b919061109f565b60405180910390a2565b600080610380610544565b905061038d8582856105e0565b610398858585610674565b60019150509392505050565b60006012905090565b60008060008373ffffffffffffffffffffffffffffffffffffffff1673ffffffffffffffffffffffffffffffffffffffff168152602001908152602001600020549050919050565b60606004805461040490610e75565b80601f016020809104026020016040519081016040528092919081815260200182805461043090610e75565b801561047d5780601f106104525761010080835404028352916020019161047d565b820191906000526020600020905b81548152906001019060200180831161046057829003601f168201915b5050505050905090565b600080610492610544565b905061049f818585610674565b600191505092915050565b600560009054906101000a900460ff1681565b6000600160008473ffffffffffffffffffffffffffffffffffffffff1673ffffffffffffffffffffffffffffffffffffffff16815260200190815260200160002060008373ffffffffffffffffffffffffffffffffffffffff1673ffffffffffffffffffffffffffffffffffffffff16815260200190815260200160002054905092915050565b600033905090565b6105598383836001610768565b505050565b600073ffffffffffffffffffffffffffffffffffffffff168273ffffffffffffffffffffffffffffffffffffffff16036105d05760006040517fec442f050000000000000000000000000000000000000000000000000000000081526004016105c791906110dc565b60405180910390fd5b6105dc6000838361093f565b5050565b60006105ec84846104bd565b90507fffffffffffffffffffffffffffffffffffffffffffffffffffffffffffffffff811461066e578181101561065e578281836040517ffb8f41b2000000000000000000000000000000000000000000000000000000008152600401610655939291906110f7565b60405180910390fd5b61066d84848484036000610768565b5b50505050565b600073ffffffffffffffffffffffffffffffffffffffff168373ffffffffffffffffffffffffffffffffffffffff16036106e65760006040517f96c6fd1e0000000000000000000000000000000000000000000000000000000081526004016106dd91906110dc565b60405180910390fd5b600073ffffffffffffffffffffffffffffffffffffffff168273ffffffffffffffffffffffffffffffffffffffff16036107585760006040517fec442f0500000000000000000000000000000000000000000000000000000000815260040161074f91906110dc565b60405180910390fd5b61076383838361093f565b505050565b600073ffffffffffffffffffffffffffffffffffffffff168473ffffffffffffffffffffffffffffffffffffffff16036107da5760006040517fe602df050000000000000000000000000000000000000000000000000000000081526004016107d191906110dc565b60405180910390fd5b600073ffffffffffffffffffffffffffffffffffffffff168373ffffffffffffffffffffffffffffffffffffffff160361084c5760006040517f94280d6200000000000000000000000000000000000000000000000000000000815260040161084391906110dc565b60405180910390fd5b81600160008673ffffffffffffffffffffffffffffffffffffffff1673ffffffffffffffffffffffffffffffffffffffff16815260200190815260200160002060008573ffffffffffffffffffffffffffffffffffffffff1673ffffffffffffffffffffffffffffffffffffffff168152602001908152602001600020819055508015610939578273ffffffffffffffffffffffffffffffffffffffff168473ffffffffffffffffffffffffffffffffffffffff167f8c5be1e5ebec7d5bd14f71427d1e84f3dd0314c0f7b2291e5b200ac8c7c3b925846040516109309190610d34565b60405180910390a35b50505050565b600073ffffffffffffffffffffffffffffffffffffffff168373ffffffffffffffffffffffffffffffffffffffff1603610991578060026000828254610985919061112e565b92505081905550610a64565b60008060008573ffffffffffffffffffffffffffffffffffffffff1673ffffffffffffffffffffffffffffffffffffffff16815260200190815260200160002054905081811015610a1d578381836040517fe450d38c000000000000000000000000000000000000000000000000000000008152600401610a14939291906110f7565b60405180910390fd5b8181036000808673ffffffffffffffffffffffffffffffffffffffff1673ffffffffffffffffffffffffffffffffffffffff16815260200190815260200160002081905550505b600073ffffffffffffffffffffffffffffffffffffffff168273ffffffffffffffffffffffffffffffffffffffff1603610aad5780600260008282540392505081905550610afa565b806000808473ffffffffffffffffffffffffffffffffffffffff1673ffffffffffffffffffffffffffffffffffffffff168152602001908152602001600020600082825401925050819055505b8173ffffffffffffffffffffffffffffffffffffffff168373ffffffffffffffffffffffffffffffffffffffff167fddf252ad1be2c89b69c2b068fc378daa952ba7f163c4a11628f55a4df523b3ef83604051610b579190610d34565b60405180910390a3505050565b600081519050919050565b600082825260208201905092915050565b60005b83811015610b9e578082015181840152602081019050610b83565b60008484015250505050565b6000601f19601f8301169050919050565b6000610bc682610b64565b610bd08185610b6f565b9350610be0818560208601610b80565b610be981610baa565b840191505092915050565b60006020820190508181036000830152610c0e8184610bbb565b905092915050565b600080fd5b600073ffffffffffffffffffffffffffffffffffffffff82169050919050565b6000610c4682610c1b565b9050919050565b610c5681610c3b565b8114610c6157600080fd5b50565b600081359050610c7381610c4d565b92915050565b6000819050919050565b610c8c81610c79565b8114610c9757600080fd5b50565b600081359050610ca981610c83565b92915050565b60008060408385031215610cc657610cc5610c16565b5b6000610cd485828601610c64565b9250506020610ce585828601610c9a565b9150509250929050565b60008115159050919050565b610d0481610cef565b82525050565b6000602082019050610d1f6000830184610cfb565b92915050565b610d2e81610c79565b82525050565b6000602082019050610d496000830184610d25565b92915050565b600080600060608486031215610d6857610d67610c16565b5b6000610d7686828701610c64565b9350506020610d8786828701610c64565b9250506040610d9886828701610c9a565b9150509250925092565b600060ff82169050919050565b610db881610da2565b82525050565b6000602082019050610dd36000830184610daf565b92915050565b600060208284031215610def57610dee610c16565b5b6000610dfd84828501610c64565b91505092915050565b60008060408385031215610e1d57610e1c610c16565b5b6000610e2b85828601610c64565b9250506020610e3c85828601610c64565b9150509250929050565b7f4e487b7100000000000000000000000000000000000000000000000000000000600052602260045260246000fd5b60006002820490506001821680610e8d57607f821691505b602082108103610ea057610e9f610e46565b5b50919050565b7f4e487b7100000000000000000000000000000000000000000000000000000000600052601160045260246000fd5b60008160011c9050919050565b6000808291508390505b6001851115610f2c57808604811115610f0857610f07610ea6565b5b6001851615610f175780820291505b8081029050610f2585610ed5565b9450610eec565b94509492505050565b600082610f455760019050611001565b81610f535760009050611001565b8160018114610f695760028114610f7357610fa2565b6001915050611001565b60ff841115610f8557610f84610ea6565b5b8360020a915084821115610f9c57610f9b610ea6565b5b50611001565b5060208310610133831016604e8410600b8410161715610fd75782820a905083811115610fd257610fd1610ea6565b5b611001565b610fe48484846001610ee2565b92509050818404811115610ffb57610ffa610ea6565b5b81810290505b9392505050565b600061101382610c79565b915061101e83610c79565b925061104b7fffffffffffffffffffffffffffffffffffffffffffffffffffffffffffffffff8484610f35565b905092915050565b7f5f72657761726465640000000000000000000000000000000000000000000000600082015250565b6000611089600983610b6f565b915061109482611053565b602082019050919050565b600060408201905081810360008301526110b88161107c565b90506110c76020830184610d25565b92915050565b6110d681610c3b565b82525050565b60006020820190506110f160008301846110cd565b92915050565b600060608201905061110c60008301866110cd565b6111196020830185610d25565b6111266040830184610d25565b949350505050565b600061113982610c79565b915061114483610c79565b925082820190508082111561115c5761115b610ea6565b5b9291505056fea2646970667358221220008263e75bff964ba1f7ec7a8959b91796909e1a45beb80217d1d16bcff369a264736f6c63430008180033",
  "linkReferences": {},
  "deployedLinkReferences": {}
}